:0300000002000EED
:0C000E00787FE4F6D8FD75810B020055E8
:08012600020A000002080000BB
:03000B0002009A56
:10009A00C0E0C0D0050BE50B7002050A758A3375FE
:1000AA008CFEE50B6401450A7002D291E50BB50995
:1000BA0007E50AB50802C291E50B6428450A7006ED
:0B00CA00F50AF50BC291D0D0D0E03257
:1000D5005389F0438901758A33758CFED28CC28DA4
:1000E500D2A9D2AFC2A630A60B75080075090412B5
:1000F500010A800675080075090230A604C2B6809B
:05010500E5C2B780E136
:0D010A00007F087E017DF3DDFEDEFCDFFAE4
:0101170022C5
:0D011800007F037E1A7DDFDDFEDEFCDFFAD6
:0101250022B7
:10001A000200D5E493A3F8E493A34003F68001F227
:10002A0008DFF48029E493A3F85407240CC8C333E7
:10003A00C4540F4420C8834004F456800146F6DFB6
:10004A00E4800B0102040810204080900126E47E1F
:10005A00019360BCA3FF543F30E509541FFEE493AB
:10006A00A360010ECF54C025E060A840B8E493A372
:10007A00FAE493A3F8E493A3C8C582C8CAC583CA9D
:10008A00F0A3C8C582C8CAC583CADFE9DEE780BE55
:01012E0000D0
:00000001FF
