:03000000020223D6
:0C022300787FE4F6D8FD75811602016DAD
:07024100776F7A68656E001B
:10016D0075088578097C007D007BFF7A0279417ED8
:10017D00007F071200D31201A312022F7B007A0019
:10018D0079097D02AF081201127B007A0079097D91
:06019D0001AF080201128F
:080112008F108B118A12891372
:10011A00E4F514F515ED24FE6024047045AF1012C1
:10012A00020BAB11AA12A9131200F9FF60341201D3
:10013A00F374012513F513E43512F51280E4E51082
:10014A002440FF12020BAB11AA12A9131200F9FFE5
:10015A0060101201F374012513F513E43512F51238
:02016A0080E42F
:01016C002270
:1001F3008F161201D7D287C286C285008516A0004A
:08020300D2850000C285002233
:10020B008F161201D7C287C286C285008516A00041
:08021B00D2850000C28500221B
:1001A30012022F7F3812020B1202387F3812020B11
:1001B3001202387F3812020B1202387F3812020BF8
:1001C3007F0812020B7F0112020B7F0612020B7FC4
:0401D3000C02020B0D
:1001D7007F8075A080EF30E712C287D286C2850084
:0B01E700D2850000AFA0C2850080EAB6
:0101F20022EA
:08022F007F1B7EE2DEFEDFFC16
:0102370022A4
:080238007F097EF4DEFEDFFC0D
:01024000229B
:10000300E709F608DFFA8046E709F208DFFA803EDF
:1000130088828C83E709F0A3DFFA8032E309F608CC
:10002300DFFA8078E309F208DFFA807088828C8334
:10003300E309F0A3DFFA806489828A83E0A3F608E8
:10004300DFFA805889828A83E0A3F208DFFA804CC2
:1000530080D280FA80C680D4806980F28033801099
:1000630080A680EA809A80A880DA80E280CA803302
:1000730089828A83ECFAE493A3C8C582C8CCC5837A
:10008300CCF0A3C8C582C8CCC583CCDFE9DEE7804A
:100093000D89828A83E493A3F608DFF9ECFAA9F0C9
:1000A300EDFB2289828A83ECFAE0A3C8C582C8CC1F
:1000B300C583CCF0A3C8C582C8CCC583CCDFEADE38
:1000C300E880DB89828A83E493A3F208DFF980CC9A
:1000D30088F0EF60010E4E60C388F0ED2402B40493
:1000E3000050B9F582EB2402B4040050AF2323453A
:0600F3008223900053730C
:1000F900BB010689828A83E0225002E722BBFE0205
:09010900E32289828A83E4932237
:00000001FF
