:030000000208AC47
:0C08AC00787FE4F6D8FD75811502060384
:1000030000000000000000000000000000000000ED
:10001300000000000000000000008080C0C0E0E09D
:10002300E0F0F0F0F0F0F0F0F0F0E0E0E0C000001D
:1000330000000000000000000000000000000000BD
:1000430000000000000000000000000000000000AD
:10005300000000000000000000000000000000009D
:10006300000000000000000000000000000000008D
:10007300000000000000000000000000000000007D
:10008300000000000000000000000000000000006D
:1000930000000000000000F0FEFFFFFF7F1F0F0FB6
:1000A300070703030303030303071FFFFFFFFFFE0A
:1000B300F00000000000000000000000000000004D
:1000C3000000000000000000000000007CFEFEFEB7
:1000D300FEFC000000000000000000000000000023
:1000E300000000000000000000000000000000000D
:1000F30000000000000000000000000000000000FD
:1001030000000000000000000000000000000000EC
:1001130000000000000000000101010000000000D9
:10012300000000000000008080C0F0FFFFFFFFFF21
:100133001F0000000000000000000000000000009D
:1001430000000000000000000000000000C1E1E327
:10015300E1C1C0000000000000000000000000003A
:10016300000000000000000000000000000000008C
:10017300000000000000000000000000000000007C
:10018300000000000000000000000000000000006C
:10019300000000000000000000000000000000005C
:1001A300000000F8FCFEFFFFFF1F0F0F0703010015
:1001B300000000000000000000000000000000003C
:1001C30000000000000000000000000000FFFFFF2F
:1001D300FFFFFF98F8F8F0000000000000000000A7
:1001E300000000000000000000000000000000000C
:1001F30000000000000000000000000000000000FC
:1002030000000000000000000000000000000000EB
:1002130000000000000000000000000000000000DB
:10022300000000FFFFFFFFFFFF00000000000000D1
:1002330000000000000000000000000000000000BB
:1002430000000000000000000000000000030F1F7A
:100253003F7FFFFFFFFFF9F8F0F0E0E0C080000010
:10026300000000000000000000000000000000008B
:10027300000000000000000000000000000000007B
:10028300000000000000000000000000000000006B
:10029300000000000000000000000000000000005B
:1002A3000000000307070707030000000000000029
:1002B300000000000000000000000000000000003B
:1002C3000000000080C0C0C0C0800000000000002B
:1002D3000000000000010183FFFFFFFFFFFF00009C
:1002E300000000000000000000000000000000000B
:1002F30000000000000000000000000000000000FB
:1003030000000000000000000000000000000000EA
:1003130000000000000000000000000000000000DA
:1003230000001C3E7FFFFFFFFE780000000000007E
:1003330000000000000000000000000000000000BA
:100343000000000003070F1F3F3F7F7FFEFCFCFC04
:10035300F8F8F8F8F8FCFEFF7F7F3F0F030000007A
:10036300000000000000000000000000000000008A
:10037300000000000000000000000000000000007A
:10038300000000000000000000000000000000006A
:10039300000000000000000000000000000000005A
:1003A300000000000000000000000000000000004A
:1003B300000000000000000000000000000000003A
:1003C3000000000000000000000000000000000129
:1003D3000101010101010000000000000000000014
:1003E300000000000000000000000000000000000A
:1003F30000000000000000000000000000000000FA
:1004030000000000000000000000000080C0E0E0E9
:10041300F0F0F8F8FCFCFCFEFEFEFEFFFFFFFFFF22
:10042300FFFFFFFFFFFEFEFEFEFCFCFCF8F8F0F012
:10043300E0E0C080000000000000000000000000B9
:100443000000000000C0E0F0F8FEFFFFFFFFFFFF29
:10045300FFFFFFFFFFFFFFFFFFFFFFFFFFFFFF7F29
:10046300BFFFFFEFFFFFFFFFFDFDFFFF7FFBFBF183
:10047300F3F3F7CF9F1E3CF8F0E08000000000008C
:100483000080F0FCFFFFFFFFFFFFFFFFFFFFFFFF09
:10049300FFFFFFFFFFFFFFFFFFFFFFFFFFFF7FFFE9
:1004A300FFFFFF7F3F1F1F1F7730201030302103D6
:1004B3001F3F7F7FFFFFFEFCFFFFFFFFFCF00000FD
:1004C300207F7F7FFFFFFFFFFFFFFFFFFFFFFFFF98
:1004D300FFFFFFFFFFFFFFFFFF7F1F0F0301000071
:1004E30001010000000000000010101010100000B7
:1004F3000000000080E0FCFFFFFFFFFFFFFFFFE0C5
:1005030000000000000000010103030707070F0FAD
:100513001F1F0F0F0F4F47C3C08080000000000054
:1005230000000000000080C0C0E0F0F0F0F0F0F840
:10053300F8FCFEFFFFFFFFFFFFFFFFFFFFFFFF07CB
:1005430000000C38F8F8F0F0E0E0C0C0C080000014
:100553000000000000000000000183FE780000F0AE
:10056300F8F8FCFEFEFFFFFFFFFFFFFFFFFFFFFFAB
:10057300FFFFFFFFFFFFFFFFFFFFFFFF3F0700003E
:10058300000000000001070F1F3F7FFFFFFFFCF883
:10059300F0F1E2E6C4C4C4C4E6E3E3F1F8FCFFFF10
:1005A300FFFFFFFFFFFFFFFFFFFFFFFFFFFFFFFF58
:1005B300FFFFFFFFFF7F3F1F0F0701000000000049
:1005C300000000000000000000000000010303071A
:1005D3000F0F1F1F3F3F3F7F7F7F7F7F7F7FFFFF88
:1005E300FFFFFF7F7F7F7F7F3F3F3F1F1F1F0F0F58
:1005F30007030301000000000000000000000000EA
:100603001206EB7F2012083A7F0212083A12077291
:10061300E4F508F5091208357F3012083AE4FF12B1
:10062300083AE509AE087806C333CE33CED8F9F5D8
:100633000B8E0AE5092401FFE43508FEEF7806C3B3
:1006430033CE33CED8F9FFC3E50B9FEE6480F8E5D4
:100653000A648098500D120806050BE50B70D4054B
:100663000A80D00509E50970020508C39408E50866
:1006730064809480409F12089E120772E4F508F587
:10068300091208357F1012083AE4FF12083AE50907
:10069300AE087806C333CE33CED8F9F50B8E0AE510
:1006A300092401FFE43508FEEF7806C333CE33CEC9
:1006B300D8F9FFC3E50B9FEE6480F8E50A648098E0
:1006C300500D120806050BE50B70D4050A80D00502
:1006D30009E50970020508C39408E508648094805D
:0806E300409F12089E0206135D
:10077200750E08E50EC394005027E50E24B0FF1253
:10078200083A7F1012083AE4FF12083AE4F50FE43F
:10079200FF120815050FE50FC3948040F2150E8075
:0107A200D284
:0107A3002233
:1007D600E4F514E51424B0FF12083AE4FF12083ACF
:1007E600E4FF12083AE4F5157F011208150515E530
:0F07F60015C3948040F20514E514C3940840D451
:0108050022D0
:1006EB007FAE12083AE4FF12083A7F1012083A7FE5
:1006FB004012083A7FB012083A7F8112083A7FFF06
:10070B0012083A7FA112083A7FA612083A7FA81264
:10071B00083A7F3F12083A7FC812083A7FD3120873
:10072B003AE4FF12083A7FD512083A7F8012083A52
:10073B007FD812083A7F0512083A7FD912083A7F00
:10074B00F112083A7FDA12083A7F1212083A7FDB6D
:10075B0012083A7F3012083A7F8D12083A7F141232
:07076B00083A7FAF02083AD3
:05083500E50924B0FFFD
:10083A008F101208747F781207A412085AE4FF1264
:10084A0007A412085AAF101207A412085A02088203
:0F0806007403250BF5827404350AF583E493FF20
:100815008F101208747F781207A412085A7F4012AD
:1008250007A412085AAF101207A412085A02088228
:0207A4008F11B3
:1007A600E4F512F513C292E511339295D29212082E
:1007B600B8C2921208B8E51125E0F5110513E51344
:0F07C60070020512C39408E5126480948040D637
:0107D5002201
:10085A00C292D2951208B8D2921208B8A295E4337D
:09086A00F511C2921208B8AF1199
:010873002262
:0E087400D292C295D2951208B8C2950208B869
:0E088200C292C295D2921208B8D2950208B85E
:0D089000007F0F7E027DEBDDFEDEFCDFFA57
:01089D002238
:0108B800221D
:0D089E00007F047E817D77DDFEDEFCDFFA49
:0108AB00222A
:00000001FF
