:030000000201AA50
:0C01AA00787FE4F6D8FD75811A0201F19F
:0E035100020B000002090000010800010D026D
:1002360012037C12032D750900750A02E4F50BF50D
:100246000CD2A8C2881203921202A48F1A8E198D9C
:10025600188C1730A62E750900750A04C2B6C2A0FE
:10026600E4F51612036E0516C3E516648094824003
:10027600F2D2A0120360750B00750C01E4F5088537
:100286000A0D8013750900750A02E4F50BF50CD208
:0E029600B6850A0D120392E4F58DF58B80A754
:0300030002039B5A
:04039B0075080132AE
:0A038800C295D295120006C295221C
:1002A4001203883096FDD28E2096FDC28EAF8DEF5C
:1002B400FEAD8B7C00E42DFDEC3EFCE41201197BC9
:1002C400487AE1798A783F12000E8F118E108D0FD3
:1002D4008C0E7F967E437D8B7C3CAB11AA10A90FBC
:0E02E400A80E12000E8F158E148D138C122290
:03000B000202F2FC
:1002F200C0E0C0D0050CE50C7002050B758A3375A1
:100302008CFEE50C6401450B7002D291E50CB50A36
:1003120007E50BB50902C291E50C6428450B70068E
:0B032200F50BF50CC291D0D0D0E032FA
:0C037C0053890F438910E4F58DF58B22A6
:10032D005389F0438901758A33758CFED28CC28D49
:05033D00D2A9D2AF229D
:040006007F04DFFE96
:01000A0022D3
:080392007F367EC7DEFEDFFCB2
:01039A002240
:0D036000007F0F7E027DEBDDFEDEFCDFFA8C
:01036D00226D
:0E03420000007F167E037DE3DDFEDEFCDFFAA9
:01035000228A
:0D036E00007F027E0D7DEDDDFEDEFCDFFA7E
:01037B00225F
:10000E00EC4D6011E8497017ED33EC3304600DE4EC
:10001E00FCFFFEFD22E933E8330470F8020187127B
:10002E00015258046009E4CC24815006285009027C
:10003E00019128400302018EC0E0EB4A7044B98062
:10004E0006D0E0FB02017DEF4E701CBD8008EBFF79
:10005E00EAFEE9FD80EBE98DF0A4FEE5F00200F783
:10006E00E9CDF9EAFEEBFFEF89F0A4FCE5F0CE89CD
:10007E00F0A42EFFE435F0CD89F0A42DFEE435F08A
:10008E008067EF4E7005BD80D780C3EF8BF0A4ACB8
:10009E00F0EE8BF0A42CFCE435F0F8EF8AF0A42CF3
:1000AE00E5F038FCE433CB8DF0A42CFCE5F03BF806
:1000BE00EE8AF0A42CFCE5F038F8E433CF89F0A4F6
:1000CE002CFCE5F038CF3400CE89F0A42FFFE5F0FC
:1000DE003EFEE433C98DF0A42EFEE5F039CD8AF054
:1000EE00A42FFFE5F03EFEE43DFD33D0E0FB5007CC
:1000FE000BBB000F020191EC2CFCEF33FFEE33FE35
:06010E00ED33FD02016962
:1001140075F020800E75F010800575F0087D007E66
:10012400007F003392D530D50312019CEC3340108C
:10013400EF33FFEE33FEED33FDEC33FCD5F0ED226F
:0E014400E5F0247EA2D513CC92E7CDCEFF22AB
:10015200E9D2E7C933E833F892D5EDD2E7CD33ECF3
:0701620033FC5002B2D5226C
:10016900EC30E7100FBF000C0EBE00080DBD0004F7
:100179000BEB6014A2D5EB13FCED92E7FD2274FFA3
:10018900FCFDFEFF22E480F8A2D574FF13FC7D80FC
:03019900E480EF10
:1001B600020236E493A3F8E493A34003F68001F227
:1001C60008DFF48029E493A3F85407240CC8C3334A
:1001D600C4540F4420C8834004F456800146F6DF19
:1001E600E4800B0102040810204080900351E47E55
:1001F600019360BCA3FF543F30E509541FFEE4930E
:10020600A360010ECF54C025E060A840B8E493A3D4
:10021600FAE493A3F8E493A3C8C582C8CAC583CAFF
:10022600F0A3C8C582C8CAC583CADFE9DEE780BEB7
:01035F00009D
:0E019C00C3E49FFFE49EFEE49DFDE49CFC2274
:00000001FF
