:03000000020223D6
:0C022300787FE4F6D8FD75811A02026AAB
:0E03DB00020B000002090000010800010D02E3
:1002AF001204061203B7750900750A02E4F50BF57F
:1002BF000CD2A8C28812041C12032E8F1A8E198D0D
:1002CF00188C17E4FFFE7DA07C41AB1AAA19A91860
:1002DF00A817120114502E750900750A04C296C290
:1002EF00A0E4F5161203F80516C3E5166480948290
:1002FF0040F2D2A01203CC750B00750C01E4F50887
:10030F00850A0D8013750900750A02E4F50BF50CCB
:0F031F00D296850A0D12041CE4F58DF58B80969D
:03000300020425CF
:040425007508013223
:0A041200C2A5D2A5120006C2A52261
:10032E0012041230A6FDD28E20A6FDC28EAF8DEF26
:10033E00FEAD8B7C00E42DFDEC3EFCE41201927BC5
:10034E00487AE1798A783F12000E8F118E108D0F48
:10035E008C0E7F967E437D8B7C3CAB11AA10A90F31
:0E036E00A80E12000E8F158E148D138C122205
:03000B0002037C71
:10037C00C0E0C0D0050CE50C7002050B758A337516
:10038C008CFEE50C6401450B7002D2A7E50CB50A96
:10039C0007E50BB50902C2A7E50C6428450B7006EE
:0B03AC00F50BF50CC2A7D0D0D0E0325A
:0C04060053890F438910E4F58DF58B221B
:1003B7005389F0438901758A33758CFED28CC28DBF
:0503C700D2A9D2AF2213
:040006007F04DFFE96
:01000A0022D3
:08041C007F367EC7DEFEDFFC27
:0104240022B5
:0D03EA00007F0F7E027DEBDDFEDEFCDFFA02
:0103F70022E3
:0E03CC0000007F167E037DE3DDFEDEFCDFFA1F
:0103DA002200
:0D03F800007F027E0D7DEDDDFEDEFCDFFAF4
:0104050022D4
:10000E00EC4D6011E8497017ED33EC3304600DE4EC
:10001E00FCFFFEFD22E933E8330470F80202001201
:10002E0001CB58046009E4CC248150062850090203
:10003E00020A284003020207C0E0EB4A7044B9806E
:10004E0006D0E0FB0201F6EF4E701CBD8008EBFF00
:10005E00EAFEE9FD80EBE98DF0A4FEE5F00200F783
:10006E00E9CDF9EAFEEBFFEF89F0A4FCE5F0CE89CD
:10007E00F0A42EFFE435F0CD89F0A42DFEE435F08A
:10008E008067EF4E7005BD80D780C3EF8BF0A4ACB8
:10009E00F0EE8BF0A42CFCE435F0F8EF8AF0A42CF3
:1000AE00E5F038FCE433CB8DF0A42CFCE5F03BF806
:1000BE00EE8AF0A42CFCE5F038F8E433CF89F0A4F6
:1000CE002CFCE5F038CF3400CE89F0A42FFFE5F0FC
:1000DE003EFEE433C98DF0A42EFEE5F039CD8AF054
:1000EE00A42FFFE5F03EFEE43DFD33D0E0FB5007CC
:1000FE000BBB000F02020AEC2CFCEF33FFEE33FEBB
:06010E00ED33FD0201E2E9
:1001140074F8CC6480CCC86480C8F58204604FC392
:10012400EB9FF5F0EA9E42F0E99D42F0E89C45F031
:10013400603C501DE5825FFFE582D313CB5BCBF4BB
:100144002B5582FB50280ABA002409B900200880E4
:100154001DE5825BFBE582D313CF5FCFF4C3132F7E
:100164005582FF50090EBE00050DBD00010CC3EB06
:100174009FF5F0EA9E42F0E99D42F0E89C45F0606C
:0901840007CC4820E701B3EC228E
:10018D0075F020800E75F010800575F0087D007EED
:10019D00007F003392D530D503120215EC33401099
:1001AD00EF33FFEE33FEED33FDEC33FCD5F0ED22F6
:0E01BD00E5F0247EA2D513CC92E7CDCEFF2232
:1001CB00E9D2E7C933E833F892D5EDD2E7CD33EC7A
:0701DB0033FC5002B2D522F3
:1001E200EC30E7100FBF000C0EBE00080DBD00047E
:1001F2000BEB6014A2D5EB13FCED92E7FD2274FF2A
:10020200FCFDFEFF22E480F8A2D574FF13FC7D8082
:03021200E480EF96
:10022F000202AFE493A3F8E493A34003F68001F234
:10023F0008DFF48029E493A3F85407240CC8C333D0
:10024F00C4540F4420C8834004F456800146F6DF9F
:10025F00E4800B01020408102040809003DBE47E51
:10026F00019360BCA3FF543F30E509541FFEE49394
:10027F00A360010ECF54C025E060A840B8E493A35B
:10028F00FAE493A3F8E493A3C8C582C8CAC583CA86
:10029F00F0A3C8C582C8CAC583CADFE9DEE780BE3E
:0103E9000013
:0E021500C3E49FFFE49EFEE49DFDE49CFC22FA
:00000001FF
