:0300000002000EED
:0C000E00787FE4F6D8FD75810B020055E8
:08013200020A000002080000AF
:1000D5001200FB120110750800750904120116754E
:1000E5000800750906120116750800750904120144
:0600F5001612011080DD6F
:1000FB005389F0438901758A33758CFED28CC28D7E
:05010B00D2A9D2AF22D1
:06011000750800750902EC
:0D011600007F087E017DF3DDFEDEFCDFFAD8
:0101230022B9
:0D012400007F037E1A7DDFDDFEDEFCDFFACA
:0101310022AB
:03000B0002009A56
:10009A00C0E0C0D0050BE50B7002050A758A3375FE
:1000AA008CFEE50B6401450A7002D297E50BB5098F
:1000BA0007E50AB50802C297E50B6428450A7006E7
:0B00CA00F50AF50BC297D0D0D0E03251
:10001A000200D5E493A3F8E493A34003F68001F227
:10002A0008DFF48029E493A3F85407240CC8C333E7
:10003A00C4540F4420C8834004F456800146F6DFB6
:10004A00E4800B0102040810204080900132E47E13
:10005A00019360BCA3FF543F30E509541FFEE493AB
:10006A00A360010ECF54C025E060A840B8E493A372
:10007A00FAE493A3F8E493A3C8C582C8CAC583CA9D
:10008A00F0A3C8C582C8CAC583CADFE9DEE780BE55
:01013A0000C4
:00000001FF
