:03000000020137C3
:0C013700787FE4F6D8FD75815202017E4D
:1001C3006675636B210D0A0041542B43574A415016
:1001D3003D2259585331303137222C227975616EC3
:1001E30078756573686531303137220D0A004154E3
:1001F3002B43495053544152543D22544350222CD3
:10020300223139322E3136382E312E323130222CF2
:07021300383838300D0A00F5
:10026B00021D0000015200010900071641542B52D8
:10027B00535400173B41542B554152543D393630A2
:10028B00302C382C312C302C300D0A000F2C4154D3
:10029B002B4349504D4F44453D310D0A000D1F4135
:0F02AB00542B43495053454E440D0A000108009F
:10021A001200031203371203137BFF7A0179CB1200
:10022A000300E55260FCE4F5527BFF7A0179F11292
:10023A000300E55260FCE4F552FB7A00792C1203C4
:10024A0000E55260FCE4F552FB7A00791F120300C4
:10025A001203137BFF7A0179C3120300120313807E
:01026A00F2A1
:05033700D2AFD2AC22A0
:03002300020026B2
:10002600C0E0C0F0C083C082C0D075D000C000C0A0
:0D00360001C002C003C004C005C006C00721
:1000430020980302011CC298AF99EF6457600DEF2B
:10005300644F6008EF644C6003BF46037508007487
:100063000A2508F8A6070508E50AB45717E50FB4EB
:1000730043127509017E007F0C7D007B007A0079B5
:100083000A1202D4E50AB44F17E50BB44B127552AA
:10009300017E007F0C7D007B007A00790A1202D476
:1000A300E50AB44C16E50BB43111C2B77E007F0CE0
:1000B3007D007B007A00790A1202D4E50AB44C165B
:1000C300E50BB43011D2B77E007F0C7D007B007A44
:1000D30000790A1202D4E50A64467035E50D6441DD
:1000E300702FC3E50864809485500EC2B6120321B5
:1000F300D2B6120321050880E97B007A0079161233
:1001030003007E007F0C7D007B007A00790A1202D7
:09011300D4E508B40C03750800E2
:10011C00D007D006D005D004D003D002D001D00037
:0B012C00D0D0D082D083D0F0D0E032E1
:0D031300007F0F7E027DEBDDFEDEFCDFFAD9
:0103200022BA
:0A00180000007F217E42DEFEDFFCC7
:0100220022BB
:10000300758E0175985053890F438920758DFD7541
:050013008DFDD28E22DC
:08032F008F993099FDC299225B
:100300001202BBFF600C12032F740129F9E43AFAC0
:0303100080EE225A
:0D032100007F087E017DF3DDFEDEFCDFFACB
:01032E0022AC
:1001430002021AE493A3F8E493A34003F68001F2B6
:1001530008DFF48029E493A3F85407240CC8C333BD
:10016300C4540F4420C8834004F456800146F6DF8C
:10017300E4800B010204081020408090026BE47EAF
:10018300019360BCA3FF543F30E509541FFEE49381
:10019300A360010ECF54C025E060A840B8E493A348
:1001A300FAE493A3F8E493A3C8C582C8CAC583CA73
:1001B300F0A3C8C582C8CAC583CADFE9DEE780BE2B
:0102BA000043
:1002BB00BB010689828A83E0225002E722BBFE0241
:0902CB00E32289828A83E4932274
:1002D400EF4E6012EF60010EEDBB010B89828A8341
:1002E400F0A3DFFCDEFA2289F05007F709DFFCA94E
:0C02F400F022BBFEFCF309DFFCA9F022A5
:00000001FF
