:03000000020118E2
:0C011800787FE4F6D8FD75815E02015F7F
:1001A400023C0000015E00015D00010900073541C9
:1001B400542B525354000E4F41542B43574D4F442C
:1001C400453D320D0A000E1B41542B4349504D55F9
:1001D400583D310D0A00110A41542B4349505345EF
:1001E400525645523D310D0A00113E41542B4349AC
:0F01F4005053454E443D302C350D0A0001080094
:100249001200031202ADD2B7D2B612029F7B007A16
:1002590000794F12028CE55E60FCE4F55EFB7A00E2
:10026900791B12028CE55E60FCE4F55EFB7A00798D
:100279000A12028CE55D60FCE4F55EE55D6002C290
:03028900B680FE3E
:0502AD00D2AFD2AC222B
:03002300020026B2
:10002600C0E0C0F0C083C082C0D075D000C000C0A0
:0D00360001C002C003C004C005C006C00721
:100043002098030200FDC298AF99EF6457600DEF4B
:10005300644F6008EF644C6003BF3003750800749D
:10006300292508F8A6070508E529B45717E52EB48E
:1000730043127509017E007F0C7D007B007A0079B5
:100083002912021DE529B43017E52BB44312755D1F
:10009300017E007F0C7D007B007A00792912021D0E
:1000A300E529B44F17E52AB44B12755E017E007F34
:1000B3000C7D007B007A00792912021DE529B44CDE
:1000C30016E52AB43111B2B77E007F0C7D007B00A8
:1000D3007A00792912021DE529B44C16E52AB437B2
:1000E30011D2B77E007F0C7D007B007A0079291244
:0A00F300021DE508B40C03750800B7
:1000FD00D007D006D005D004D003D002D001D00057
:0B010D00D0D0D082D083D0F0D0E03200
:0D029F00007F0F7E027DEBDDFEDEFCDFFA4E
:0102AC00222F
:10000300758E0175985053890F438920758DFD7541
:050013008DFDD28E22DC
:080018008F993099FDC2992275
:10028C00120204FF600C120018740129F9E43AFA06
:03029C0080EE22CF
:10012400020249E493A3F8E493A34003F68001F2A6
:1001340008DFF48029E493A3F85407240CC8C333DC
:10014400C4540F4420C8834004F456800146F6DFAB
:10015400E4800B01020408102040809001A4E47E96
:10016400019360BCA3FF543F30E509541FFEE493A0
:10017400A360010ECF54C025E060A840B8E493A367
:10018400FAE493A3F8E493A3C8C582C8CAC583CA92
:10019400F0A3C8C582C8CAC583CADFE9DEE780BE4A
:0102030000FA
:10020400BB010689828A83E0225002E722BBFE02F8
:09021400E32289828A83E493222B
:10021D00EF4E6012EF60010EEDBB010B89828A83F8
:10022D00F0A3DFFCDEFA2289F05007F709DFFCA905
:0C023D00F022BBFEFCF309DFFCA9F0225C
:00000001FF
