:030000000200BA41
:0C00BA00787FE4F6D8FD75815E0201013C
:100245006675636B210D0A006F70656E00636C6FD8
:1002550073650041542B43574A41503D2259585329
:1002650031303137222C227975616E787565736866
:100275006531303137220D0A0041542B4349505323
:10028500544152543D22544350222C223139322EAE
:100295003136382E312E323130222C383838300D67
:0202A5000A004D
:1002A700021D0000071641542B52535400173C41BE
:1002B700542B554152543D393630302C382C312C83
:1002C700302C300D0A000F2D41542B4349504D4F10
:1002D70044453D310D0A000D1F41542B43495053EE
:0A02E700454E440D0A000208000015
:1001C800120003120360D2B6E4F51DF51E12034AAD
:1001D800C2B712034AE51E451D7054C2B67BFF7AAA
:1001E80002795812033712034A12034A12034A7B50
:1001F800FF7A02797E12033712034A12034A120366
:100208004A7B007A00792D12033712034A12034AF7
:1002180012034A7B007A00791F12033712034A122D
:10022800034A12034AC2B7751D00751E0180A17BDF
:0D023800FF7A02794512033712034A8093C2
:05036000D2AFD2AC2277
:03002300020026B2
:10002600C0E0C0F0C083C082C0D075D000C000C0A0
:0D00360001C002C003C004C005C006C00721
:10004300309859C298740A2509F8A6990509E50953
:100053007002050885992C7556FF75570275584D22
:100063007B007A00790A120146EA494B60057599CB
:1000730041801A7556FF7557027558527B007A00F6
:10008300790A120146EA494B60127599427E007F54
:0C0093000C7D007B007A00790A12030B40
:10009F00D007D006D005D004D003D002D001D000B5
:0B00AF00D0D0D082D083D0F0D0E0325F
:0D034A00007F0F7E027DEBDDFEDEFCDFFAA2
:010357002283
:0A00180000007F217E42DEFEDFFCC7
:0100220022BB
:10000300758E0175985053890F438920758DFD7541
:050013008DFDD28E22DC
:080358008F993099FDC2992232
:100337001202F2FF600C120358740129F9E43AFA29
:0303470080EE2223
:1000C6000201C8E493A3F8E493A34003F68001F287
:1000D60008DFF48029E493A3F85407240CC8C3333B
:1000E600C4540F4420C8834004F456800146F6DF0A
:1000F600E4800B01020408102040809002A7E47EF1
:10010600019360BCA3FF543F30E509541FFEE493FE
:10011600A360010ECF54C025E060A840B8E493A3C5
:10012600FAE493A3F8E493A3C8C582C8CAC583CAF0
:10013600F0A3C8C582C8CAC583CADFE9DEE780BEA8
:0102F100000C
:1002F200BB010689828A83E0225002E722BBFE020A
:09030200E32289828A83E493223C
:100146008B538A548955AB56AA57A9581202F260A6
:1001560063AB53AA54A9551202F2605F85565985BE
:10016600575A85585B8B5C8A5D895EAB59AA5AA93A
:100176005B1202F2FF6023AB5CAA5DA95E1202F27B
:100186006F701704255BF55BE4355AF55A74012543
:100196005EF55EE4355DF55D80D1AB59AA5AA95B83
:1001A6001202F27002800D74012555F555E435549E
:1001B600F554809DAB53AA54A955227B007A007949
:0201C600002215
:10030B00EF4E6012EF60010EEDBB010B89828A8309
:10031B00F0A3DFFCDEFA2289F05007F709DFFCA916
:0C032B00F022BBFEFCF309DFFCA9F0226D
:00000001FF
