:03000000020152A8
:0C015200787FE4F6D8FD75814B0201991E
:03001F000D0A00C7
:1001DE007536027537021203A412042112034B1254
:1001EE00044412042112034B1202628B2D8A2E89B3
:1001FE002F1203798B308A318932AB2DAA2EA92F7B
:10020E0012030E8B338A3489357D01AF361202C14B
:10021E00AB30AA31A9327D02AF371202C1AB2DAA83
:10022E002EA92F1200E0D3648094B24004C29080B5
:10023E0002D290AB33AA34A935120255AB30AA3193
:07024E00A932120255809B4A
:0D0255001203ED7BFF7A00791F1203ED22EA
:080444007F1B7EE2DEFEDFFCFF
:01044C00228D
:08044D007F097EF4DEFEDFFCF6
:010455002284
:0D041300007F087E017DF3DDFEDEFCDFFAD8
:0104200022B9
:080456007F367EC7DEFEDFFCED
:01045E00227B
:08045F007F247ED9DEFEDFFCE4
:010467002272
:04047F007F19DFFE04
:010483002256
:05047900007F0FDFFE13
:01047E00225B
:0D042100007F0F7E027DEBDDFEDEFCDFFACA
:01042E0022AB
:0B042F00AB39AA3AA93B1200E0FF2203
:1003BD008F3F120003D287C286C28500853FA00001
:0803CD00D2850000C285002268
:0802C1008F388B398A3A893B22
:1002C900E4F53DF53EED24FE6017047028E5382479
:1002D90080F53CFF1203D512042F60191202FF802A
:1002E900F6E53824C0F53CFF1203D512042F60054A
:0502F9001202FF80F677
:1002FE00221203BD7401253BF53BE4353AF53A2253
:1003D5008F3F120003C287C286C28500853FA000F9
:0803E500D2850000C285002250
:10034B0012044412036B12044D12036B7F08120349
:10035B00D57F011203D57F061203D57F0C0203D57F
:0E036B007F381203D512044D7F381203D522BD
:100003007F8075A080EF30E712C287D286C2850059
:0B001300D2850000AFA0C2850080EA8B
:01001E0022BF
:080468000242000802400000FE
:1003A400758E017598505389F0438920758DFD75BC
:0903B4008DFDD28ED2AFD2AC2235
:080471008F993099FDC2992218
:1003ED001200E0FF600C120471740129F9E43AFA6D
:0303FD0080EE226D
:03002300020026B2
:10002600C0E0C0F0C083C082C0D075D000C000C0A0
:0D00360001C002C003C004C005C006C00721
:1000430030984AC298AF99BF3A067540007541008F
:1000530074442541F8A6990541E54170020540E540
:1000630044643A7011E545B46F0CE546B47007C2B9
:1000730093C2901200ABE544643A7011E545B46352
:0D0083000CE546B46C07D293D2901200AB8E
:10009000D007D006D005D004D003D002D001D000C4
:1000A000D0D0D082D083D0F0D0E032120421AE4242
:0E00B000AF437D007B007A00794412012622C6
:0A043A001200F9FF75F00A0200BE7F
:10026200120400E4F538F539E4F53AF53B3096FD31
:10027200120479309608753D0130960580FBE4F54D
:100282003DE53C25E0F53CE53D423C053BE53B7068
:1002920002053AC39408E53A6480948040CF74081A
:1002A2002539F8A63C0539E53970020538C39405AD
:0E02B200E5386480948040B07B007A007908C3
:0102C000221B
:10030E00750D54750E3A90000212043A2430F50F12
:10031E00EF12043EAFF0EF2430F51075112E900061
:10032E000312043A2430F512EF12043EAFF0EF241C
:0D033E0030F5137514437B007A00790D2211
:10037900751D48751E3A1200E012043D2430F51F20
:10038900F52075212E90000112043A2430F522F54A
:0B039900237524257B007A00791D22CB
:10040000D296C296120456D2962096FD3096FD20C2
:0304100096FD2234
:10015E000201DEE493A3F8E493A34003F68001F2D8
:10016E0008DFF48029E493A3F85407240CC8C333A2
:10017E00C4540F4420C8834004F456800146F6DF71
:10018E00E4800B0102040810204080900468E47E95
:10019E00019360BCA3FF543F30E509541FFEE49366
:1001AE00A360010ECF54C025E060A840B8E493A32D
:1001BE00FAE493A3F8E493A3C8C582C8CAC583CA58
:1001CE00F0A3C8C582C8CAC583CADFE9DEE780BE10
:01047000008B
:1000BE00C2D530F707B2D563F0FF05F030E70CB2CA
:1000CE00D5F4048463F0FF05F080018430D502F48A
:0200DE000422FA
:1000E000BB010689828A83E0225002E722BBFE021E
:0900F000E32289828A83E4932251
:1000F900BB010CE58229F582E5833AF583E02250BC
:1001090006E92582F8E622BBFE06E92582F8E22205
:0D011900E58229F582E5833AF583E493221F
:10012600EF4E6012EF60010EEDBB010B89828A83F0
:10013600F0A3DFFCDEFA2289F05007F709DFFCA9FD
:0C014600F022BBFEFCF309DFFCA9F02254
:00000001FF
