:0300000002028475
:0C028400787FE4F6D8FD75813602012970
:10012900752D02752E0212022D1202681201AD12EE
:1001390002A21202761201AD1200D01200037B0056
:100149007A00790D7D01AF2D12006E7B007A00795E
:100159001D7D02AF2E12006ED3E508648094B24073
:0901690004C29080CDD29080C93F
:10024200D296C296120299D2962096FD3096FD2041
:0302520096FD22F4
:1000D000120242E4F52FF530E4F531F5323096FDA9
:1000E0001202BC30960875340130960580FBE4F5A9
:1000F00034E53325E0F533E53442330532E532703B
:10010000020531C39408E5316480948040CF7408BF
:100110002530F8A6330530E5307002052FC394056D
:08012000E52F6480948040B0DB
:0101280022B4
:0D026800007F0F7E027DEBDDFEDEFCDFFA85
:010275002266
:080290007F247ED9DEFEDFFCB5
:010298002243
:0402C2007F19DFFEC3
:0102C6002215
:0502BC00007F0FDFFED2
:0102C100221A
:10022D00758E017598405389F0438920758DFD7544
:05023D008DFDD28E22B0
:0802B4008F993099FDC29922D7
:10025500120194FF600C1202B4740129F9E43AFA10
:0302650080EE2206
:10000300750D54750E3AE50A75F00A120172243023
:10001300F50FE50A75F00A120172AFF0EF2430F51F
:100023001075112EE50B75F00A1201722430F512CA
:10003300E50B75F00A120172AFF0EF2430F513757A
:100043001443751D48751E3AE50875F00A120172CE
:100053002430F51FF52075212EE50975F00A1201EC
:0B006300722430F522F52375242522BD
:0D027600007F087E017DF3DDFEDEFCDFFA77
:010283002258
:080299007F367EC7DEFEDFFCAC
:0102A100223A
:08006E008F2F8B308A3189329B
:10007600E4F534F535ED24FE602904704CE52F24B3
:1000860080F533FF120215AB30AA31A93212019462
:10009600FF60361201FD74012532F532E43531F583
:1000A6003180E4E52F24C0F533FF120215AB30AAE8
:1000B60031A932120194FF60101201FD740125323C
:0900C600F532E43531F53180E436
:0100CF00220E
:1001FD008F361201E1D287C286C285008536A000F6
:08020D00D2850000C285002229
:100215008F361201E1C287C286C285008536A000ED
:08022500D2850000C285002211
:1001AD001202A27F381202151202AB7F381202150D
:1001BD001202AB7F381202151202AB7F38120215F4
:1001CD007F081202157F011202157F061202157F9C
:0401DD000C020215F9
:1001E1007F8075A080EF30E712C287D286C285007A
:0B01F100D2850000AFA0C2850080EAAC
:0101FC0022E0
:0802A2007F1B7EE2DEFEDFFCA3
:0102AA002231
:0802AB007F097EF4DEFEDFFC9A
:0102B3002228
:10017200C2D530F707B2D563F0FF05F030E70CB215
:10018200D5F4048463F0FF05F080018430D502F4D5
:02019200042245
:10019400BB010689828A83E0225002E722BBFE0269
:0901A400E32289828A83E493229C
:00000001FF
